{
  "_format": "hh-sol-artifact-1",
  "contractName": "Raffle",
  "sourceName": "contracts/Raffle.sol",
  "abi": [
    {
      "inputs": [
        {
          "internalType": "address",
          "name": "vrfCoordinatorV2",
          "type": "address"
        },
        {
          "internalType": "uint256",
          "name": "entranceFee",
          "type": "uint256"
        },
        {
          "internalType": "bytes32",
          "name": "gasLane",
          "type": "bytes32"
        },
        {
          "internalType": "uint64",
          "name": "subscriptionId",
          "type": "uint64"
        },
        {
          "internalType": "uint32",
          "name": "callbackGasLimit",
          "type": "uint32"
        },
        {
          "internalType": "uint256",
          "name": "interval",
          "type": "uint256"
        }
      ],
      "stateMutability": "nonpayable",
      "type": "constructor"
    },
    {
      "inputs": [
        {
          "internalType": "address",
          "name": "have",
          "type": "address"
        },
        {
          "internalType": "address",
          "name": "want",
          "type": "address"
        }
      ],
      "name": "OnlyCoordinatorCanFulfill",
      "type": "error"
    },
    {
      "inputs": [],
      "name": "Raffle__NotEnoughETHEntered",
      "type": "error"
    },
    {
      "inputs": [],
      "name": "Raffle__NotOpen",
      "type": "error"
    },
    {
      "inputs": [],
      "name": "Raffle__TranferFailed",
      "type": "error"
    },
    {
      "inputs": [
        {
          "internalType": "uint256",
          "name": "currentBalance",
          "type": "uint256"
        },
        {
          "internalType": "uint256",
          "name": "numPlayers",
          "type": "uint256"
        },
        {
          "internalType": "uint256",
          "name": "raffleState",
          "type": "uint256"
        }
      ],
      "name": "Raffle__UpkeepNotNeeded",
      "type": "error"
    },
    {
      "anonymous": false,
      "inputs": [
        {
          "indexed": true,
          "internalType": "address",
          "name": "player",
          "type": "address"
        }
      ],
      "name": "RaffleEnter",
      "type": "event"
    },
    {
      "anonymous": false,
      "inputs": [
        {
          "indexed": true,
          "internalType": "uint256",
          "name": "requestId",
          "type": "uint256"
        }
      ],
      "name": "RequestedRaffleWinner",
      "type": "event"
    },
    {
      "anonymous": false,
      "inputs": [
        {
          "indexed": true,
          "internalType": "address",
          "name": "winner",
          "type": "address"
        }
      ],
      "name": "Winnerpicked",
      "type": "event"
    },
    {
      "inputs": [
        {
          "internalType": "bytes",
          "name": "",
          "type": "bytes"
        }
      ],
      "name": "checkUpkeep",
      "outputs": [
        {
          "internalType": "bool",
          "name": "upkeepNeeded",
          "type": "bool"
        },
        {
          "internalType": "bytes",
          "name": "",
          "type": "bytes"
        }
      ],
      "stateMutability": "view",
      "type": "function"
    },
    {
      "inputs": [],
      "name": "enterRaffle",
      "outputs": [],
      "stateMutability": "payable",
      "type": "function"
    },
    {
      "inputs": [],
      "name": "getEntranceFee",
      "outputs": [
        {
          "internalType": "uint256",
          "name": "",
          "type": "uint256"
        }
      ],
      "stateMutability": "view",
      "type": "function"
    },
    {
      "inputs": [],
      "name": "getInterval",
      "outputs": [
        {
          "internalType": "uint256",
          "name": "",
          "type": "uint256"
        }
      ],
      "stateMutability": "view",
      "type": "function"
    },
    {
      "inputs": [],
      "name": "getLastTimeStamp",
      "outputs": [
        {
          "internalType": "uint256",
          "name": "",
          "type": "uint256"
        }
      ],
      "stateMutability": "view",
      "type": "function"
    },
    {
      "inputs": [],
      "name": "getNumberofPlayers",
      "outputs": [
        {
          "internalType": "uint256",
          "name": "",
          "type": "uint256"
        }
      ],
      "stateMutability": "view",
      "type": "function"
    },
    {
      "inputs": [
        {
          "internalType": "uint256",
          "name": "index",
          "type": "uint256"
        }
      ],
      "name": "getPlayer",
      "outputs": [
        {
          "internalType": "address",
          "name": "",
          "type": "address"
        }
      ],
      "stateMutability": "view",
      "type": "function"
    },
    {
      "inputs": [],
      "name": "getRaffleState",
      "outputs": [
        {
          "internalType": "enum Raffle.RaffleState",
          "name": "",
          "type": "uint8"
        }
      ],
      "stateMutability": "view",
      "type": "function"
    },
    {
      "inputs": [],
      "name": "getRecentWinner",
      "outputs": [
        {
          "internalType": "address",
          "name": "",
          "type": "address"
        }
      ],
      "stateMutability": "view",
      "type": "function"
    },
    {
      "inputs": [],
      "name": "getRequestconfirmations",
      "outputs": [
        {
          "internalType": "uint256",
          "name": "",
          "type": "uint256"
        }
      ],
      "stateMutability": "pure",
      "type": "function"
    },
    {
      "inputs": [],
      "name": "getnumWords",
      "outputs": [
        {
          "internalType": "uint256",
          "name": "",
          "type": "uint256"
        }
      ],
      "stateMutability": "pure",
      "type": "function"
    },
    {
      "inputs": [
        {
          "internalType": "bytes",
          "name": "",
          "type": "bytes"
        }
      ],
      "name": "performUpkeep",
      "outputs": [],
      "stateMutability": "nonpayable",
      "type": "function"
    },
    {
      "inputs": [
        {
          "internalType": "uint256",
          "name": "requestId",
          "type": "uint256"
        },
        {
          "internalType": "uint256[]",
          "name": "randomWords",
          "type": "uint256[]"
        }
      ],
      "name": "rawFulfillRandomWords",
      "outputs": [],
      "stateMutability": "nonpayable",
      "type": "function"
    }
  ],
  "bytecode": "0x6101606040523480156200001257600080fd5b506040516200186c3803806200186c8339818101604052810190620000389190620002a0565b858073ffffffffffffffffffffffffffffffffffffffff1660808173ffffffffffffffffffffffffffffffffffffffff1660601b81525050508460a081815250508573ffffffffffffffffffffffffffffffffffffffff1660c08173ffffffffffffffffffffffffffffffffffffffff1660601b815250508360e081815250508267ffffffffffffffff166101008167ffffffffffffffff1660c01b815250508163ffffffff166101208163ffffffff1660e01b815250506000600160146101000a81548160ff021916908360018111156200011957620001186200033c565b5b0217905550426002819055508061014081815250505050505050506200036b565b600080fd5b600073ffffffffffffffffffffffffffffffffffffffff82169050919050565b60006200016c826200013f565b9050919050565b6200017e816200015f565b81146200018a57600080fd5b50565b6000815190506200019e8162000173565b92915050565b6000819050919050565b620001b981620001a4565b8114620001c557600080fd5b50565b600081519050620001d981620001ae565b92915050565b6000819050919050565b620001f481620001df565b81146200020057600080fd5b50565b6000815190506200021481620001e9565b92915050565b600067ffffffffffffffff82169050919050565b62000239816200021a565b81146200024557600080fd5b50565b60008151905062000259816200022e565b92915050565b600063ffffffff82169050919050565b6200027a816200025f565b81146200028657600080fd5b50565b6000815190506200029a816200026f565b92915050565b60008060008060008060c08789031215620002c057620002bf6200013a565b5b6000620002d089828a016200018d565b9650506020620002e389828a01620001c8565b9550506040620002f689828a0162000203565b94505060606200030989828a0162000248565b93505060806200031c89828a0162000289565b92505060a06200032f89828a01620001c8565b9150509295509295509295565b7f4e487b7100000000000000000000000000000000000000000000000000000000600052602160045260246000fd5b60805160601c60a05160c05160601c60e0516101005160c01c6101205160e01c61014051611485620003e7600039600081816107f701526108a0015260006106a70152600061068401526000610663015260006106270152600081816103060152610403015260008181610343015261039701526114856000f3fe6080604052600436106100c15760003560e01c8063473f1ddc1161007f5780636e04ff0d116100595780636e04ff0d1461022457806391ad27b414610262578063c1c244e81461028d578063e55ae4e8146102b8576100c1565b8063473f1ddc146101a357806349a706ce146101ce57806367f48366146101f9576100c1565b8062bcdbc7146100c657806309bc33a7146100f1578063115cbaf51461011c5780631fe543e3146101475780632cfcc539146101705780634585e33b1461017a575b600080fd5b3480156100d257600080fd5b506100db6102f5565b6040516100e89190610c06565b60405180910390f35b3480156100fd57600080fd5b50610106610302565b6040516101139190610c06565b60405180910390f35b34801561012857600080fd5b5061013161032a565b60405161013e9190610c98565b60405180910390f35b34801561015357600080fd5b5061016e60048036038101906101699190610e4c565b610341565b005b610178610401565b005b34801561018657600080fd5b506101a1600480360381019061019c9190610f03565b610570565b005b3480156101af57600080fd5b506101b861076f565b6040516101c59190610f91565b60405180910390f35b3480156101da57600080fd5b506101e3610799565b6040516101f09190610c06565b60405180910390f35b34801561020557600080fd5b5061020e6107a5565b60405161021b9190610c06565b60405180910390f35b34801561023057600080fd5b5061024b60048036038101906102469190611061565b6107b4565b60405161025992919061114d565b60405180910390f35b34801561026e57600080fd5b5061027761089c565b6040516102849190610c06565b60405180910390f35b34801561029957600080fd5b506102a26108c4565b6040516102af9190610c06565b60405180910390f35b3480156102c457600080fd5b506102df60048036038101906102da919061117d565b6108ce565b6040516102ec9190610f91565b60405180910390f35b6000600361ffff16905090565b60007f0000000000000000000000000000000000000000000000000000000000000000905090565b6000600160149054906101000a900460ff16905090565b7f000000000000000000000000000000000000000000000000000000000000000073ffffffffffffffffffffffffffffffffffffffff163373ffffffffffffffffffffffffffffffffffffffff16146103f357337f00000000000000000000000000000000000000000000000000000000000000006040517f1cf993f40000000000000000000000000000000000000000000000000000000081526004016103ea9291906111aa565b60405180910390fd5b6103fd8282610915565b5050565b7f000000000000000000000000000000000000000000000000000000000000000034101561045b576040517fbd4e069500000000000000000000000000000000000000000000000000000000815260040160405180910390fd5b6000600181111561046f5761046e610c21565b5b600160149054906101000a900460ff16600181111561049157610490610c21565b5b146104c8576040517f1425571c00000000000000000000000000000000000000000000000000000000815260040160405180910390fd5b6000339080600181540180825580915050600190039060005260206000200160009091909190916101000a81548173ffffffffffffffffffffffffffffffffffffffff021916908373ffffffffffffffffffffffffffffffffffffffff1602179055503373ffffffffffffffffffffffffffffffffffffffff167f0805e1d667bddb8a95f0f09880cf94f403fb596ce79928d9f29b74203ba284d460405160405180910390a2565b600061058a604051806020016040528060008152506107b4565b509050806105f95747600080549050600160149054906101000a900460ff1660018111156105bb576105ba610c21565b5b6040517f584327aa0000000000000000000000000000000000000000000000000000000081526004016105f0939291906111d3565b60405180910390fd5b60018060146101000a81548160ff0219169083600181111561061e5761061d610c21565b5b021790555060007f000000000000000000000000000000000000000000000000000000000000000073ffffffffffffffffffffffffffffffffffffffff16635d3b1d307f00000000000000000000000000000000000000000000000000000000000000007f000000000000000000000000000000000000000000000000000000000000000060037f000000000000000000000000000000000000000000000000000000000000000060016040518663ffffffff1660e01b81526004016106e8959493929190611282565b602060405180830381600087803b15801561070257600080fd5b505af1158015610716573d6000803e3d6000fd5b505050506040513d601f19601f8201168201806040525081019061073a91906112ea565b9050807fcd6e45c8998311cab7e9d4385596cac867e20a0587194b954fa3a731c93ce78b60405160405180910390a250505050565b6000600160009054906101000a900473ffffffffffffffffffffffffffffffffffffffff16905090565b60008080549050905090565b6000600163ffffffff16905090565b600060606000600160149054906101000a900460ff1660018111156107dc576107db610c21565b5b600060018111156107f0576107ef610c21565b5b14905060007f0000000000000000000000000000000000000000000000000000000000000000600254426108249190611346565b119050600080600080549050119050600080471190508380156108445750825b801561084d5750815b80156108565750805b9550856040518060400160405280600381526020017f30783000000000000000000000000000000000000000000000000000000000008152509550955050505050915091565b60007f0000000000000000000000000000000000000000000000000000000000000000905090565b6000600254905090565b60008082815481106108e3576108e261137a565b5b9060005260206000200160009054906101000a900473ffffffffffffffffffffffffffffffffffffffff169050919050565b60008080549050826000815181106109305761092f61137a565b5b602002602001015161094291906113d8565b905060008082815481106109595761095861137a565b5b9060005260206000200160009054906101000a900473ffffffffffffffffffffffffffffffffffffffff16905080600160006101000a81548173ffffffffffffffffffffffffffffffffffffffff021916908373ffffffffffffffffffffffffffffffffffffffff1602179055506000600160146101000a81548160ff021916908360018111156109ed576109ec610c21565b5b0217905550600067ffffffffffffffff811115610a0d57610a0c610d09565b5b604051908082528060200260200182016040528015610a3b5781602001602082028036833780820191505090505b5060009080519060200190610a51929190610b46565b504260028190555060008173ffffffffffffffffffffffffffffffffffffffff1647604051610a7f9061143a565b60006040518083038185875af1925050503d8060008114610abc576040519150601f19603f3d011682016040523d82523d6000602084013e610ac1565b606091505b5050905080610afc576040517f22c146bd00000000000000000000000000000000000000000000000000000000815260040160405180910390fd5b8173ffffffffffffffffffffffffffffffffffffffff167fb0fc8ab73adcef25a1453d5ce1e431af87f9d9c205616ad4999cbea0aeba68f760405160405180910390a25050505050565b828054828255906000526020600020908101928215610bbf579160200282015b82811115610bbe5782518260006101000a81548173ffffffffffffffffffffffffffffffffffffffff021916908373ffffffffffffffffffffffffffffffffffffffff16021790555091602001919060010190610b66565b5b509050610bcc9190610bd0565b5090565b5b80821115610be9576000816000905550600101610bd1565b5090565b6000819050919050565b610c0081610bed565b82525050565b6000602082019050610c1b6000830184610bf7565b92915050565b7f4e487b7100000000000000000000000000000000000000000000000000000000600052602160045260246000fd5b60028110610c6157610c60610c21565b5b50565b6000819050610c7282610c50565b919050565b6000610c8282610c64565b9050919050565b610c9281610c77565b82525050565b6000602082019050610cad6000830184610c89565b92915050565b6000604051905090565b600080fd5b600080fd5b610cd081610bed565b8114610cdb57600080fd5b50565b600081359050610ced81610cc7565b92915050565b600080fd5b6000601f19601f8301169050919050565b7f4e487b7100000000000000000000000000000000000000000000000000000000600052604160045260246000fd5b610d4182610cf8565b810181811067ffffffffffffffff82111715610d6057610d5f610d09565b5b80604052505050565b6000610d73610cb3565b9050610d7f8282610d38565b919050565b600067ffffffffffffffff821115610d9f57610d9e610d09565b5b602082029050602081019050919050565b600080fd5b6000610dc8610dc384610d84565b610d69565b90508083825260208201905060208402830185811115610deb57610dea610db0565b5b835b81811015610e145780610e008882610cde565b845260208401935050602081019050610ded565b5050509392505050565b600082601f830112610e3357610e32610cf3565b5b8135610e43848260208601610db5565b91505092915050565b60008060408385031215610e6357610e62610cbd565b5b6000610e7185828601610cde565b925050602083013567ffffffffffffffff811115610e9257610e91610cc2565b5b610e9e85828601610e1e565b9150509250929050565b600080fd5b60008083601f840112610ec357610ec2610cf3565b5b8235905067ffffffffffffffff811115610ee057610edf610ea8565b5b602083019150836001820283011115610efc57610efb610db0565b5b9250929050565b60008060208385031215610f1a57610f19610cbd565b5b600083013567ffffffffffffffff811115610f3857610f37610cc2565b5b610f4485828601610ead565b92509250509250929050565b600073ffffffffffffffffffffffffffffffffffffffff82169050919050565b6000610f7b82610f50565b9050919050565b610f8b81610f70565b82525050565b6000602082019050610fa66000830184610f82565b92915050565b600080fd5b600067ffffffffffffffff821115610fcc57610fcb610d09565b5b610fd582610cf8565b9050602081019050919050565b82818337600083830152505050565b6000611004610fff84610fb1565b610d69565b9050828152602081018484840111156110205761101f610fac565b5b61102b848285610fe2565b509392505050565b600082601f83011261104857611047610cf3565b5b8135611058848260208601610ff1565b91505092915050565b60006020828403121561107757611076610cbd565b5b600082013567ffffffffffffffff81111561109557611094610cc2565b5b6110a184828501611033565b91505092915050565b60008115159050919050565b6110bf816110aa565b82525050565b600081519050919050565b600082825260208201905092915050565b60005b838110156110ff5780820151818401526020810190506110e4565b8381111561110e576000848401525b50505050565b600061111f826110c5565b61112981856110d0565b93506111398185602086016110e1565b61114281610cf8565b840191505092915050565b600060408201905061116260008301856110b6565b81810360208301526111748184611114565b90509392505050565b60006020828403121561119357611192610cbd565b5b60006111a184828501610cde565b91505092915050565b60006040820190506111bf6000830185610f82565b6111cc6020830184610f82565b9392505050565b60006060820190506111e86000830186610bf7565b6111f56020830185610bf7565b6112026040830184610bf7565b949350505050565b6000819050919050565b61121d8161120a565b82525050565b600067ffffffffffffffff82169050919050565b61124081611223565b82525050565b600061ffff82169050919050565b61125d81611246565b82525050565b600063ffffffff82169050919050565b61127c81611263565b82525050565b600060a0820190506112976000830188611214565b6112a46020830187611237565b6112b16040830186611254565b6112be6060830185611273565b6112cb6080830184611273565b9695505050505050565b6000815190506112e481610cc7565b92915050565b600060208284031215611300576112ff610cbd565b5b600061130e848285016112d5565b91505092915050565b7f4e487b7100000000000000000000000000000000000000000000000000000000600052601160045260246000fd5b600061135182610bed565b915061135c83610bed565b92508282101561136f5761136e611317565b5b828203905092915050565b7f4e487b7100000000000000000000000000000000000000000000000000000000600052603260045260246000fd5b7f4e487b7100000000000000000000000000000000000000000000000000000000600052601260045260246000fd5b60006113e382610bed565b91506113ee83610bed565b9250826113fe576113fd6113a9565b5b828206905092915050565b600081905092915050565b50565b6000611424600083611409565b915061142f82611414565b600082019050919050565b600061144582611417565b915081905091905056fea2646970667358221220811da038883bd5d51f23a401d453752266f38cab2db8a68cbc3ac1a758e71caa64736f6c63430008080033",
  "linkReferences": {},
  "deployedLinkReferences": {}
}